sl  local_address                         remote_address                        st tx_queue rx_queue tr tm->when retrnsmt   uid  timeout inode ref pointer drops
3834: 000080FE00000000FF2C2940121285FE:0035 00000000000000000000000000000000:0000 07 00000000:00000000 00:00000000 00000000   107        0 21592 2 0000000000000000 0
3904: 000080FE00000000FF821A00B7980DFE:007B 00000000000000000000000000000000:0000 07 00000000:00000000 00:00000000 00000000   109        0 83617731 2 0000000000000000 0
3904: 000080FE00000000FF363EE0B1A89DFE:007B 00000000000000000000000000000000:0000 07 00000000:00000000 00:00000000 00000000   109        0 83426619 2 0000000000000000 0
3904: 000080FE00000000FFF58AF4BB63CFFE:007B 00000000000000000000000000000000:0000 07 00000000:00000000 00:00000000 00000000   109        0 83422513 2 0000000000000000 0
3904: 000080FE00000000FF242A94153F24FE:007B 00000000000000000000000000000000:0000 07 00000000:00000000 00:00000000 00000000   109        0 83145337 2 0000000000000000 0
3904: 000080FE00000000FFA6CF5C00E0DAFE:007B 00000000000000000000000000000000:0000 07 00000000:00000000 00:00000000 00000000   109        0 83145336 2 0000000000000000 0
3904: 000080FE00000000FFFB8F7421F53BFE:007B 00000000000000000000000000000000:0000 07 00000000:00000000 00:00000000 00000000   109        0 83139783 2 0000000000000000 0
3904: 000080FE00000000FF2A88984D652DFE:007B 00000000000000000000000000000000:0000 07 00000000:00000000 00:00000000 00000000   109        0 83091222 2 0000000000000000 0
3904: 000080FE00000000FF9274703CD418FE:007B 00000000000000000000000000000000:0000 07 00000000:00000000 00:00000000 00000000   109        0 82953995 2 0000000000000000 0
3904: 000080FE00000000FF721164B608D8FE:007B 00000000000000000000000000000000:0000 07 00000000:00000000 00:00000000 00000000   109        0 82279800 2 0000000000000000 0
3904: 000080FE00000000FF73877CFEB35EFE:007B 00000000000000000000000000000000:0000 07 00000000:00000000 00:00000000 00000000   109        0 82279799 2 0000000000000000 0
3904: 000080FE00000000FFD9C050E066D1FE:007B 00000000000000000000000000000000:0000 07 00000000:00000000 00:00000000 00000000   109        0 82279798 2 0000000000000000 0
3904: 000080FE00000000FF15B1EC3595BEFE:007B 00000000000000000000000000000000:0000 07 00000000:00000000 00:00000000 00000000   109        0 82279797 2 0000000000000000 0
3904: 000080FE00000000FF60D7F81A7CBAFE:007B 00000000000000000000000000000000:0000 07 00000000:00000000 00:00000000 00000000   109        0 82279796 2 0000000000000000 0
3904: 000080FE00000000FF0FE450D62A81FE:007B 00000000000000000000000000000000:0000 07 00000000:00000000 00:00000000 00000000   109        0 82262073 2 0000000000000000 0
3904: 000080FE00000000FF963DF48AEC97FE:007B 00000000000000000000000000000000:0000 07 00000000:00000000 00:00000000 00000000   109        0 82262072 2 0000000000000000 0
3904: 000080FE00000000FFBEAA4010CB5FFE:007B 00000000000000000000000000000000:0000 07 00000000:00000000 00:00000000 00000000   109        0 78803083 2 0000000000000000 0
3904: 000080FE00000000FF54E4FCBBBD4FFE:007B 00000000000000000000000000000000:0000 07 00000000:00000000 00:00000000 00000000   109        0 78017185 2 0000000000000000 0
3904: 000080FE00000000FF3E09287CAD9DFE:007B 00000000000000000000000000000000:0000 07 00000000:00000000 00:00000000 00000000   109        0 77912357 2 0000000000000000 0
3904: 000080FE00000000FF89DF98046D1DFE:007B 00000000000000000000000000000000:0000 07 00000000:00000000 00:00000000 00000000   109        0 76069070 2 0000000000000000 0
3904: 000080FE00000000FFE1E1987F4909FE:007B 00000000000000000000000000000000:0000 07 00000000:00000000 00:00000000 00000000   109        0 75451544 2 0000000000000000 0
3904: 000080FE00000000FFBE54A4BED628FE:007B 00000000000000000000000000000000:0000 07 00000000:00000000 00:00000000 00000000   109        0 75402208 2 0000000000000000 0
3904: 000080FE00000000FF77B6DC4CCD34FE:007B 00000000000000000000000000000000:0000 07 00000000:00000000 00:00000000 00000000   109        0 75326810 2 0000000000000000 0
3904: 000080FE00000000FF8482946E899CFE:007B 00000000000000000000000000000000:0000 07 00000000:00000000 00:00000000 00000000   109        0 62989957 2 0000000000000000 0
3904: 000080FE00000000FFF66DD409749BFE:007B 00000000000000000000000000000000:0000 07 00000000:00000000 00:00000000 00000000   109        0 62989956 2 0000000000000000 0
3904: 000080FE00000000FF4699D89434E0FE:007B 00000000000000000000000000000000:0000 07 00000000:00000000 00:00000000 00000000   109        0 61720434 2 0000000000000000 0
3904: 000080FE00000000FFBE64B0246FF4FE:007B 00000000000000000000000000000000:0000 07 00000000:00000000 00:00000000 00000000   109        0 61604666 2 0000000000000000 0
3904: 000080FE00000000FF89B0ACBCBD8DFE:007B 00000000000000000000000000000000:0000 07 00000000:00000000 00:00000000 00000000   109        0 39284758 2 0000000000000000 0
3904: 000080FE00000000FF6BBBDC7B0657FE:007B 00000000000000000000000000000000:0000 07 00000000:00000000 00:00000000 00000000   109        0 32318090 2 0000000000000000 0
3904: 000080FE00000000FF76BD408B0CCAFE:007B 00000000000000000000000000000000:0000 07 00000000:00000000 00:00000000 00000000   109        0 32314672 2 0000000000000000 0
3904: 000080FE00000000FF8A46B426F308FE:007B 00000000000000000000000000000000:0000 07 00000000:00000000 00:00000000 00000000   109        0 30036847 2 0000000000000000 0
3904: 000080FE00000000FF04265CB467F4FE:007B 00000000000000000000000000000000:0000 07 00000000:00000000 00:00000000 00000000   109        0 29944616 2 0000000000000000 0
3904: 000080FE00000000FFD263A8514287FE:007B 00000000000000000000000000000000:0000 07 00000000:00000000 00:00000000 00000000   109        0 28988307 2 0000000000000000 0
3904: 000080FE00000000FF79AEFCB104D5FE:007B 00000000000000000000000000000000:0000 07 00000000:00000000 00:00000000 00000000   109        0 28716572 2 0000000000000000 0
3904: 000080FE00000000FF90AE7895AE58FE:007B 00000000000000000000000000000000:0000 07 00000000:00000000 00:00000000 00000000   109        0 28716571 2 0000000000000000 0
3904: 000080FE00000000FFDD5D8879C942FE:007B 00000000000000000000000000000000:0000 07 00000000:00000000 00:00000000 00000000   109        0 28716570 2 0000000000000000 0
3904: 000080FE00000000FF3A1EE0381154FE:007B 00000000000000000000000000000000:0000 07 00000000:00000000 00:00000000 00000000   109        0 28716569 2 0000000000000000 0
3904: 000080FE00000000FF37CAF84B814DFE:007B 00000000000000000000000000000000:0000 07 00000000:00000000 00:00000000 00000000   109        0 28716568 2 0000000000000000 0
3904: 000080FE00000000FF4085580B7A58FE:007B 00000000000000000000000000000000:0000 07 00000000:00000000 00:00000000 00000000   109        0 28716567 2 0000000000000000 0
3904: 000080FE00000000FFD43D6C995B06FE:007B 00000000000000000000000000000000:0000 07 00000000:00000000 00:00000000 00000000   109        0 27167802 2 0000000000000000 0
3904: 000080FE00000000FF4C6ABCBDBE20FE:007B 00000000000000000000000000000000:0000 07 00000000:00000000 00:00000000 00000000   109        0 27035458 2 0000000000000000 0
3904: 000080FE00000000FF5E7BC4321394FE:007B 00000000000000000000000000000000:0000 07 00000000:00000000 00:00000000 00000000   109        0 26990957 2 0000000000000000 0
3904: 000080FE00000000FFB9F4CC99867DFE:007B 00000000000000000000000000000000:0000 07 00000000:00000000 00:00000000 00000000   109        0 25535887 2 0000000000000000 0
3904: 000080FE00000000FF39E84CA540AAFE:007B 00000000000000000000000000000000:0000 07 00000000:00000000 00:00000000 00000000   109        0 25462321 2 0000000000000000 0
3904: 000080FE00000000FF5237C8FF9663FE:007B 00000000000000000000000000000000:0000 07 00000000:00000000 00:00000000 00000000   109        0 25460507 2 0000000000000000 0
3904: 000080FE00000000FF3F30FC08418BFE:007B 00000000000000000000000000000000:0000 07 00000000:00000000 00:00000000 00000000   109        0 25434211 2 0000000000000000 0
3904: 000080FE00000000FFF2347CB37C3EFE:007B 00000000000000000000000000000000:0000 07 00000000:00000000 00:00000000 00000000   109        0 25432066 2 0000000000000000 0
3904: 000080FE00000000FF4F224423DCE7FE:007B 00000000000000000000000000000000:0000 07 00000000:00000000 00:00000000 00000000   109        0 25361083 2 0000000000000000 0
3904: 000080FE00000000FF34CCAC712D0CFE:007B 00000000000000000000000000000000:0000 07 00000000:00000000 00:00000000 00000000   109        0 25354324 2 0000000000000000 0
3904: 000080FE00000000FFA7B4B08FCE3CFE:007B 00000000000000000000000000000000:0000 07 00000000:00000000 00:00000000 00000000   109        0 25346507 2 0000000000000000 0
3904: 000080FE00000000FFDE5F247482B4FE:007B 00000000000000000000000000000000:0000 07 00000000:00000000 00:00000000 00000000   109        0 25346506 2 0000000000000000 0
3904: 000080FE00000000FF9D95944C86ACFE:007B 00000000000000000000000000000000:0000 07 00000000:00000000 00:00000000 00000000   109        0 25340320 2 0000000000000000 0
3904: 000080FE00000000FF8663786FED94FE:007B 00000000000000000000000000000000:0000 07 00000000:00000000 00:00000000 00000000   109        0 25326172 2 0000000000000000 0
3904: 000080FE00000000FF6E240CB97DAEFE:007B 00000000000000000000000000000000:0000 07 00000000:00000000 00:00000000 00000000   109        0 25310765 2 0000000000000000 0
3904: 000080FE00000000FFA3515449CF3DFE:007B 00000000000000000000000000000000:0000 07 00000000:00000000 00:00000000 00000000   109        0 25280479 2 0000000000000000 0
3904: 000080FE00000000FF655D347ABB42FE:007B 00000000000000000000000000000000:0000 07 00000000:00000000 00:00000000 00000000   109        0 25248358 2 0000000000000000 0
3904: 000080FE00000000FF1461483B03EDFE:007B 00000000000000000000000000000000:0000 07 00000000:00000000 00:00000000 00000000   109        0 25238905 2 0000000000000000 0
3904: 000080FE00000000FF1DE574F23E7FFE:007B 00000000000000000000000000000000:0000 07 00000000:00000000 00:00000000 00000000   109        0 25238904 2 0000000000000000 0
3904: 000080FE00000000FF56A2789D2819FE:007B 00000000000000000000000000000000:0000 07 00000000:00000000 00:00000000 00000000   109        0 25228175 2 0000000000000000 0
3904: 000080FE00000000FF6AFA303C21A7FE:007B 00000000000000000000000000000000:0000 07 00000000:00000000 00:00000000 00000000   109        0 24661826 2 0000000000000000 0
3904: 000080FE00000000FF6C42E48E1020FE:007B 00000000000000000000000000000000:0000 07 00000000:00000000 00:00000000 00000000   109        0 24659839 2 0000000000000000 0
3904: 000080FE00000000FFD56B14D29CC7FE:007B 00000000000000000000000000000000:0000 07 00000000:00000000 00:00000000 00000000   109        0 24550038 2 0000000000000000 0
3904: 000080FE00000000FFAC6B706772A1FE:007B 00000000000000000000000000000000:0000 07 00000000:00000000 00:00000000 00000000   109        0 3309761 2 0000000000000000 0
3904: 000080FE00000000FF29D400D291C1FE:007B 00000000000000000000000000000000:0000 07 00000000:00000000 00:00000000 00000000   109        0 3303032 2 0000000000000000 0
3904: 000080FE00000000FF6373D4FC19D5FE:007B 00000000000000000000000000000000:0000 07 00000000:00000000 00:00000000 00000000   109        0 677632 2 0000000000000000 0
3904: 000080FE00000000FF72E50C6F52C3FE:007B 00000000000000000000000000000000:0000 07 00000000:00000000 00:00000000 00000000   109        0 58596 2 0000000000000000 0
3904: 000080FE00000000FF768B8065759FFE:007B 00000000000000000000000000000000:0000 07 00000000:00000000 00:00000000 00000000   109        0 58593 2 0000000000000000 0
3904: 000080FE00000000FFE927485EC974FE:007B 00000000000000000000000000000000:0000 07 00000000:00000000 00:00000000 00000000   109        0 58586 2 0000000000000000 0
3904: 000080FE00000000FF7003E800E804FE:007B 00000000000000000000000000000000:0000 07 00000000:00000000 00:00000000 00000000   109        0 58584 2 0000000000000000 0
3904: 000080FE00000000FFAFC00CDE8587FE:007B 00000000000000000000000000000000:0000 07 00000000:00000000 00:00000000 00000000   109        0 58580 2 0000000000000000 0
3904: 000080FE00000000FF3B311080A509FE:007B 00000000000000000000000000000000:0000 07 00000000:00000000 00:00000000 00000000     0        0 20895 2 0000000000000000 0
3904: 000080FE00000000FF2C2940121285FE:007B 00000000000000000000000000000000:0000 07 00000000:00000000 00:00000000 00000000     0        0 20894 2 0000000000000000 0
3904: 00000000000000000000000001000000:007B 00000000000000000000000000000000:0000 07 00000000:00000000 00:00000000 00000000     0        0 20889 2 0000000000000000 0
3904: 00000000000000000000000000000000:007B 00000000000000000000000000000000:0000 07 00000000:00000000 00:00000000 00000000     0        0 20880 2 0000000000000000 0
